:020000040800F2
:100000000826012031C0000865C0000865C000084E
:1000100065C0000865C0000865C0000865C000082C
:1000200065C0000865C0000865C0000819DD00084B
:1000300065C0000865C0000865C0000867DD0008ED
:1000400065C0000865C0000865C0000865C00008FC
:1000500065C0000865C0000865C0000865C00008EC
:1000600065C0000865C0000865C0000889E6000892
:10007000B1E60008DDE6000809E7000835E70008FA
:100080005DE7000889E70008B5E70008D1E7000848
:100090000DE8000871E80008D5E8000851E90008FB
:1000A00065C0000865C0000865C0000865C000089C
:1000B00065C0000871E9000899E9000865C00008FA
:1000C00065C0000831EA00082DEB000865C0000893
:1000D00065C0000865C0000865C0000831EC000874
:1000E00065C0000865C0000865C0000865C000085C
:1000F00065C0000865C0000845EC00086DEC00080C
:1001000065C0000865C0000865C0000865C000083B
:1001100065C0000865C0000865C0000865C000082B
:10012000E9E3000819E400084DE4000881E4000850
:10013000B5E4000865C0000865C0000865C0000897
:1001400065C0000865C0000865C00008E5E4000857
:10015000D9E500080DE6000841E6000875E600084C
:1001600065C0000865C0000865C0000865C00008DB
:1001700065C0000865C0000865C0000865C00008CB
:1001800065C0000865C0000865C0000865C00008BB
:1001900065C0000865C0000865C0000865C00008AB
:1001A00065C0000865C0000865C0000865C000089B
:1001B00065C0000865C0000865C0000865C000088B
:1001C000DFF80CD000F006F80048004769AA0108E3
:1001D000080E0120064C074D06E0E06840F00103E0
:1001E00094E8070098471034AC42F6D3FFF7ECFFD1
:1001F000180200084802000802E008C8121F08C1DF
:10020000002AFAD170477047002001E001C1121F97
:10021000002AFBD1704700004802000800000020BF
:1002200080040000B0D00008EC02000800000010BC
:10023000A08C0000B0D00008EC0200088004002070
:1002400088210100080200080118326412050348E1
:10025000290303D61027DA010809A3B40945AD1A0A
:10026000FF01018233803F7240290C2904D11440E0
:10027000420F1E8DA7010889040114180A18A40250
:1002800008A8A30208B0041A50041A5C041A9004C7
:100290001A10181A64081A6C041AA0041AC4041A52
:1002A000B8041A98041A78041A80041A88040115EC
:1002B0000232010923330929581EBD750208BF0403
:1002C000180A31330208FD3202083308113AC241DC
:1002D000AA4051092BAB5D0402400C085A040842A5
:1002E00003450C02400242960229080001FF01FF6B
:1002F00001FF01FF01FF01FF01FF01FF01FF01FFFE
:1003000001FF01FF01FF01FF01FF01FF01FF01FFED
:1003100001FF01FF01FF01FF01FF01FF01FF01FFDD
:1003200001FF01FF01FF01FF01FF01FF01FF01FFCD
:1003300001FF01FF01FF01FF01FF01FF01FF01FFBD
:1003400001FF01FF01FF01FF01FF01FF01FF01FFAD
:1003500001FF01FF01FF01FF01FF01FF01FF01FF9D
:1003600001FF01FF01FF01FF01FF01FF01FF01FF8D
:1003700001FF01FF01FF01FF01FF01FF01FF01FF7D
:1003800001FF01FF01FF01FF01FF01FF01FF01FF6D
:1003900001FF01FF01FF01FF01FF01FF01FF01FF5D
:1003A00001FF01FF01FF01FF01FF01FF01FF01FF4D
:1003B00001FF01FF01FF01FF01FF01FF01FF01FF3D
:1003C00001FF01FF01FF01FF01FF01FF01FF01FF2D
:1003D00001FF01FF01FF01FF01FF01FF01FF01FF1D
:1003E00001FF01FF01FF01FF01FF01FF01FF01FF0D
:1003F00001FF01FF01FF01FF01FF01FF01FF01FFFD
:0804000001FF01FF01FF012DC6
:020000040800F2
:10C000002DE9F04F2DED108AC1F80CD0D0F80CD0EE
:10C01000BDEC108ABDE8F08F002383F31188284619
:10C02000A04707F00DFA06F0EDFF00DFFEE7000085
:10C0300072B6094880F30988022080F31488BFF3A0
:10C040006F8F02F086FE0548016841F470010160BF
:10C050000348004770470000080E012088ED00E00B
:10C06000C1010008FEE740EA01039B0703D009E095
:10C0700008C9121F08C0042AFAD203E011F8013BD4
:10C0800000F8013B521EF9D27047D2B201E000F82D
:10C09000012B491EFBD270470022F6E710B513466C
:10C0A0000A4604461946FFF7F0FF204610BD421E1F
:10C0B00012F8013F002BFBD111F8013B02F8013BC4
:10C0C000002BF9D1704710B5002200E0521C835CB0
:10C0D0008C5CA34201D1002BF8D1D8B2E1B2401A56
:10C0E00010BD30B504460020034600E05B1C9342BF
:10C0F00003D2E05CCD5C401BF8D030BD70B50F4D75
:10C1000000B92868002412E00A4602E09E4203D0EB
:10C11000521C1378002BF9D1DAB2224305D02BB18F
:10C1200024B1002100F8011B04E00446401C0678FD
:10C13000002EE9D12860204670BD00007004002068
:10C140000FB400B58DB010A909900B9000914FF07D
:10C15000FF300A9000200C90054806900548079093
:10C160006A4609A80F9900F0CBFA0DB05DF814FBF0
:10C170001DC700083BC700082DE9FF5F1D464FF0B3
:10C18000FF3BD5E9014691465F464FF00008A9699B
:10C190007F1C01988847296A824688470028F6D183
:10C1A000BAF1FF3F0CD024F4C064002E19DD600604
:10C1B00014D5BAF12B0F09D0BAF12D0F0ED103E02F
:10C1C000584604B0BDE8F09F44F48064A9697F1C20
:10C1D00001988847761E8246002E02DDBAF1300FA4
:10C1E00003D0B9F1000F26D032E0A969761E44F4DD
:10C1F00000747F1C019888478246002E05DDBAF145
:10C20000780F06D0BAF1580F03D0B9F1000F10D053
:10C210001EE0B9F1000F02D0B9F1100F18D1A969D1
:10C22000761E24F400747F1C0198884782461020F3
:10C2300002E0082000E00A20814609E008FB090826
:10C24000A969761E44F400747F1C019888478246D1
:10C25000002E05DD4946504600F03EFA0028EDDA92
:10C26000E96901988847A00502D46FF00100A8E7AA
:10C27000E00725D1600613D5600502D5C8F100009E
:10C2800000E0404629680A1D2A600968220501D598
:10C29000087015E0220701D5088011E008600FE062
:10C2A0002868011D29600068210502D580F80080FA
:10C2B00006E0210702D5A0F8008001E0C0F8008068
:10C2C00038467EE72DE9FF4F087883B09946FF286E
:10C2D00005D0491C2D2804D00024002008E00020AF
:10C2E0000BE00124F9E700EB800003EB4000491C60
:10C2F0000B78FF2BF7D104B140420023029314784E
:10C3000019461D462D2C01D02B2C04D1521C2D2C4E
:10C3100013D000240294AA461478FF2C0FD00A25CB
:10C32000A3FB057801FB05814FF0000C03FB0C110A
:10C33000521CE3194AEB0101EEE70124EAE78144CC
:10C3400053EA010002D019F5C87F06DA03980021EC
:10C35000C0E9001107B0BDE8F08F0025AE4E2F46B2
:10C36000DFF8B882184600F0D4FBCDE90001B9F13E
:10C37000000002DAC9F1000400E004460023A74AE5
:10C380001AEB030B42EB045A12E0E00707D02A46EF
:10C3900033463846414600F0DBFA074688462A46CF
:10C3A00033461046194600F0D3FA05460E4664108F
:10C3B000002CEAD1DDE90001B9F1000F5A465346DD
:10C3C00006DA00F037FB3A46434600F033FB05E05F
:10C3D00000F0BEFA3A46434600F0BAFA029A0AB1B1
:10C3E00081F00041039AC2E90001B3E72DE9FF4F54
:10C3F0001F468DB0D7E901464FF0FF382E20454645
:10C400004FF000090B90B9696D1C0E988847396A86
:10C41000824688470028F6D1BAF1FF3F0AD024F4BB
:10C42000D064002E11DDBAF12B0F08D0BAF12D0F18
:10C430000BD102E0404611B08DE744F48064B96945
:10C440006D1C0E9888478246761E6946600501D5A8
:10C450002D2000E02B208DF8000001F1010B0DF1E3
:10C46000200809E0B9696D1C0E98884782460F982C
:10C4700044F40074761E0560002E02DDBAF1300F20
:10C48000F0D00B998A453ED144F0800406E00F9924
:10C49000681CA9F1010944F400740860B9696D1CB5
:10C4A000761E0E98884782463028F0D02BE00B99F4
:10C4B0008A4505D1200603D444F08004761E18E096
:10C4C000504603F096FE08B30DF11301761E44F4B6
:10C4D00000748B4508D2AAF130000BF8010B20063E
:10C4E00007D5A9F1010003E0200602D409F10100FB
:10C4F0008146A00502D50F99681C0860B9696D1CBA
:10C500000E9888478246002ED1DC53E0002E51DD84
:10C51000BAF1650F02D0BAF1450F4BD1A00549D54C
:10C52000B9696D1C24F44074761E0E9888478246C3
:10C53000002E0CDD2B2804D0BAF12D0F07D144F4C6
:10C540008074B9696D1C0E9888478246761EE00596
:10C5500001D52D2100E02B2108F8011BCDF82C80FE
:10C5600021E00DF12901761E44F4007488450CD2B7
:10C57000AAF1300010F0FF0088F8000002D10B99FA
:10C58000884509D908F1010806E0E00501D52448ED
:10C5900001E042F20F708146B9696D1C0E98884720
:10C5A00082460F980560002E04DD504603F021FE00
:10C5B0000028D6D1F9690E988847FF208BF8000033
:10C5C00088F800000020069007904B466A4608A9AC
:10C5D00006A8FFF777FEA00502D46FF001002AE756
:10C5E00014F0240F0AD0E00714D1DDE906123868F0
:10C5F000031D3B600068C0E900120BE0DDE90601A5
:10C6000000F0C4FA0146E00704D13868021D3A6020
:10C610000068016028460EE7000014400000F03F6B
:10C62000F1D8FFFF00F0004230F000400AD0C10D09
:10C6300001F56071C0F3160042EA0151C2084007DB
:10C640001143704700200146704730B50B46014644
:10C6500000202022012409E021FA02F59D4205D3A1
:10C6600003FA02F5491B04FA02F52844151EA2F14B
:10C670000102F1DC30BD2DE9F05F05460020924655
:10C680009B4688460646814640241BE02846414694
:10C690004746224600F0A7FA53465A46C01A91412F
:10C6A00010D311461846224600F08EFA2D1A67EB79
:10C6B00001084F4622460120002100F085FA17EBC1
:10C6C00000094E41201EA4F10104DFDC484631463A
:10C6D0002A464346BDE8F09F3A2800D2303820F081
:10C6E0002002412A01D3A2F13700884201D34FF042
:10C6F000FF30704702681144137801601846704794
:10C70000D16004495161044911620021116111464F
:10C7100000F090BAF5C600082BCC0008426842B180
:10C72000016811F8013B23B1521EC0E900121846FE
:10C7300070470121C160881E704742685AB1C368C2
:10C74000016843B983688B4205D0491E521CC0E979
:10C750000012002070474FF0FF307047420005D0B4
:10C76000C0F3C7525242914201DC0020704700EBF7
:10C77000C150704710B541000CD0C0F3C751962985
:10C7800008DC7E2909DC06DB410204D000F0004011
:10C7900040F07E5010BD002010BDC1F19604C4F1E0
:10C7A000200100FA01F1E04000F0DAFBA04010BDEA
:10C7B000F0B400F0004221F0004120F00040CE0D26
:10C7C000C30DC1F3160141F40001C0F316004C4241
:10C7D000154640F40000761E09E010EB440002D537
:10C7E00082F0004240428842F7D840005B1EB342CC
:10C7F000F9DA18B1F0BC002100F0BBBB2846F0BC50
:10C8000070472DE9FE4F804681EA0300C00F0C46B9
:10C81000009021F0004123F00045B8EB0200A9414F
:10C8200005D24046214690461C460B46024623F060
:10C830000040104347D0270DC7F30A00C3F30A5145
:10C840000290401A019040286BDAC3F3130040F4C1
:10C85000801B0098924620B10023D2EB030A63EBC1
:10C860000B0B01985946C0F14002504600F0ACF95C
:10C8700006460D4650465946019A00F0C4F910EBA1
:10C8800008006141002487EA115284EAE7731A43E1
:10C8900040D0009A62B3019A012A4FEA075215DC90
:10C8A000001B61EB02014FF0004202EA0752CDE9A2
:10C8B0000042001C41F5801132462B4600F096FBE9
:10C8C00003B0BDE8F08F40462146F9E7001B61EB5D
:10C8D0000201001C41F5801300185B412018A2F5ED
:10C8E000001747EB030140EAD570B6196D4111E01E
:10C8F0006D084FEA360645EAC0754FEA0752001B3D
:10C9000061EB0201001C41F5801149084FEA30003B
:10C910000019514132462B4603B0BDE8F04F00F0FC
:10C9200056BB0098012240000023D0EB020263EBCB
:10C93000E073009821464FEAE074B8EB000061EB29
:10C940000401E9E783F000435BE781F0004158E729
:10C950002DE9FE4F81EA030404F0004421F0004178
:10C9600000944FF0000B23F0004350EA01045ED026
:10C9700052EA03045BD0C3F30A54C1F30A552C44B2
:10C98000A4F2F3340194A0FB0254C1F3130141F467
:10C990008011C3F3130343F4801301FB024400FB33
:10C9A000034E840A970A44EA815447EA8357A4FB5A
:10C9B000076802958D0A05FB07854FEA932C04FB57
:10C9C0000C542705029D4FEA065847EA1637B5EB87
:10C9D00008056EEB070C870E920E47EA811742EAB4
:10C9E0008312A7FB0201B6EB0B0164EB00042B0DD5
:10C9F00043EA0C335E1844EB1C50DA465146E7FB21
:10CA00000201C5F313044FEA0B3343EA14534FEA10
:10CA10000432019C43EA0603A4F10C040294009C36
:10CA2000CDE900B400F0E2FA03B0BDE8F08F0020D9
:10CA30000146F9E72DE9F04D81EA030404F0004BCB
:10CA400021F0004514464FF0000A23F0004150EA5F
:10CA5000050220D054EA01021DD0C5F30A57024650
:10CA6000C5F31303C1F31300C1F30A5640F4801554
:10CA700043F48013A7EB0608101BD64608F2FD38D6
:10CA800073EB050002D308F1010801E092185B4145
:10CA9000B8F1000F03DA00200146BDE8F08D002058
:10CAA0004FF48011064684460EE0171B73EB050712
:10CAB00005D3121B63EB050306434CEA010C49083E
:10CAC0004FEA300092185B4150EA0107EDD152EA7B
:10CAD000030012D082EA040083EA0501084305D06E
:10CAE000101BAB4106D20122002306E000224FF0CA
:10CAF000004302E06FF0010253101AEB06004CEB0A
:10CB0000085110EB0A0041EB0B01BDE8F04D00F0BD
:10CB10005EBA0EB540F2334202920022CDE9002205
:10CB2000134600F063FA03B000BDC1F30A52C1F32B
:10CB3000130140F2FF3341F480119A4202DA0020DF
:10CB40000146704740F233439A42A2F2334202DC7C
:10CB5000524200F048B800F037B8000030B5041E6B
:10CB600071F1000404DB4FF00044404264EB01012A
:10CB7000141E73F1000405DB1C464FF000435242C3
:10CB800063EB0403994208BF904230BD01F00043BB
:10CB900030B421F0004150EA010206D00A0DA2F59E
:10CBA0006072C1F31301002A02DC30BC0020704720
:10CBB000440F44EAC104C100E01830BC00EBC2508D
:10CBC00000F0CEB900207047202A04DB203A00FA9A
:10CBD00002F1002070479140C2F1200320FA03F3D4
:10CBE000194390407047202A04DB203A21FA02F0D2
:10CBF0000021704721FA02F3D040C2F12002914097
:10CC0000084319467047202A06DBCB17203A41FA21
:10CC100002F043EAE07306E041FA02F3D040C2F1C9
:10CC200020029140084319467047C0B24FF4F051BA
:10CC300000F02ABA2DE9F34F8BB04FF0000801F154
:10CC40000C000C464FF0010B46460DF1080A01900E
:10CC50006269012101989047051E2DD0252D2CD009
:10CC6000216A8847C0B16269012101989047216A11
:10CC700088470028F7D1411E62690198904700E07B
:10CC8000761CA1690B988847216A88470028F7D14C
:10CC9000E1690B988847DBE7A1690B98884707464D
:10CCA000A84201D1761CD3E7E1690B9888477F1C25
:10CCB00002D1B8F1000F6FD046E1002762693D460E
:10CCC0003946019890472A2804D1626901210198C8
:10CCD00090470125DFF8849262690121019890470D
:10CCE000A0F130010A290AD24F45E5DC07EB8701A4
:10CCF00000EB4107303FDFD445F01005ECE7E906D3
:10CD000001D46FF000476C280AD04C2814D0682852
:10CD100015D06A280DD074281CD07A281AD01DE0AE
:10CD200062690121019890476C2802D045F0040502
:10CD300014E045F002050DE045F020050AE06269C7
:10CD4000012101989047682802D045F0080505E0C8
:10CD500045F400656269012101989047C4E90157D3
:10CD600065283DD019DC58287AD00CDC452837D00E
:10CD700004DC252826D0412831D131E046282FD0A7
:10CD800047282CD12CE05B2877D0612828D0632855
:10CD90007CD0642823D15AE0D0E06F2848D008DC4A
:10CDA00066281DD067281BD0692821D06E2816D18F
:10CDB00027E0702845D0732868D0752847D0782898
:10CDC0000DD14DE0A1690B988847054625283FF411
:10CDD00069AFE1690B9888476D1C3FF46AAFB3E017
:10CDE00023466A466FF001000B99FFF7FFFA9EE0B9
:10CDF00045F040006060A80723464FF0000236D49B
:10CE00003EE0E8077FF447AF2068011D216000681D
:10CE1000290501D506701BE7290701D5068017E70C
:10CE2000A90703D5F117C0E9006111E706600FE714
:10CE300045F040006060A80723464FF0080216D472
:10CE40001EE040F60E0125EA0100606016E045F0A4
:10CE500040006060A80723464FF00A0207D40FE0A5
:10CE600045F040006060A80708D5234610226FF007
:10CE700001000B99AFF3008059E007E02346102230
:10CE80006FF001000B99FFF777F950E04FF00009C0
:10CE90004F464B46632802D05B2806D040E0E806A8
:10CEA00001D40120A06001273AE0626901210198C4
:10CEB00090475E2805D14FF0010962694946019803
:10CEC0009047216939B900210A46534643F8212089
:10CED000491C0829FADBB0B3216969B9C11700EB15
:10CEE000D16253110AEB830122F01F02821A012042
:10CEF0000B68904003430B606269012101989047E1
:10CF00005D28E8D1B9F1000F09D00020514651F851
:10CF10002020D24341F82020401C0828F7DB02AB38
:10CF2000224600976FF001000B99AFF300800028B4
:10CF30000CDA401C08D1BBF1000F05D04FF0FF30D8
:10CF40000DB0BDE8F08FFFE74046F9E7E90701D1F2
:10CF500008F1010806444FF0000B79E6CCCCCC0C6C
:10CF60000029A8BF7047401C490008BF20F00100FD
:10CF7000704710B4B0FA80FC00FA0CF050EA0104DB
:10CF800004BF10BC704749B1CCF1200421FA04F46D
:10CF900011FA0CF118BF012121430843A3EB0C0146
:10CFA000CB1D4FEA00614FEA102042BF002010BCA9
:10CFB000704700EBC35010440029A4BF10BC704759
:10CFC000401C490008BF20F0010010BC704710B59C
:10CFD000141E73F1000408DA401C41F1000192189C
:10CFE0005B411A4301D120F0010010BD2DE9F04D45
:10CFF00092469B4611B1B1FA81F202E0B0FA80F29A
:10D0000020329046FFF7E0FD04460F4640EA0A0052
:10D0100041EA0B0153465A46084313D0114653EADE
:10D02000010019D0C8F140025046FFF7DCFD05466B
:10D030000E46504659464246FFF7C6FD084305D006
:10D04000012004E020463946BDE8F08D002005436C
:10D0500046EAE0762C4337430A986305E40AA0EBDE
:10D0600008000022FD0A44EA47540A3002D5002095
:10D070000146E9E7010510196941DDE90845001994
:10D080006941BDE8F04DA2E77F2801D9002208E000
:10D09000064A02EB5002C007127800D1120902F0D2
:10D0A0000F020120904008407047000074A202085F
:10D0B00070B58C1810F8015B15F0070301D110F85A
:10D0C000013B2A1106D110F8012B03E010F8016B87
:10D0D00001F8016B5B1EF9D12B0705D40023521E0A
:10D0E0000DD401F8013BFAE710F8013BCB1A921C72
:10D0F00003E013F8015B01F8015B521EF9D5A14270
:10D10000D8D3002070BD6FEA11210160704700295B
:10D11000816814BF41F0010121F001018160704775
:10D12000084AD2F80413084B1940D0E9003C43EAFE
:10D130000C03D0E902C04CEA000018430843C2F8CF
:10D140000403704700200140E030FCFF10B50121CE
:10D15000080200F0D5FDBDE8104000214FF48070BA
:10D1600000F0CEBD826822F47022114381607047C6
:10D17000826822F4401211438160704781B00844F4
:10D1800028300090006801B080B27047012303FA94
:10D1900001F1002A426814BF114322EA01014160F3
:10D1A0007047000010B44268D1E9003C22F480725C
:10D1B00022F0407242EA0C221A43426082680C4B11
:10D1C0001A40D1E904C343EA0C03D1E9024C4CEA0A
:10D1D000440C43EA0C031A438260C26A097E22F4BB
:10D1E0007002491EC9B242EA0151C16210BC7047C7
:10D1F000FDF7FFC030B4072509290CD9C468A1F197
:10D200000A0C0CEB4C0C05FA0CF5AC4303FA0CF3CE
:10D210002343C36009E0046901EB410C05FA0CF5F6
:10D22000AC4303FA0CF323430361836BC3F3015C48
:10D23000A2EB0C02921C02EB82024FF01F0C0CFAC4
:10D2400002FC23EA0C0391401943816330BC704710
:10D25000826B491E22F4401242EA015181637047F9
:10D2600005490028D1F8040314BF40F4005020F40D
:10D270000050C1F8040370470020014030B4072576
:10D2800009290CD9C468A1F10A0C0CEB4C0C05FA65
:10D290000CF5AC4303FA0CF32343C36009E00469C3
:10D2A00001EB410C05FA0CF5AC4303FA0CF32343F4
:10D2B00003614FF01F0C072A0CD2436B521E02EB86
:10D2C00082020CFA02FC23EA0C03914019434163E9
:10D2D00030BC70470D2A0CD2036BD21F02EB8202C6
:10D2E0000CFA02FC23EA0C0391401943016330BCA1
:10D2F0007047C36A0D3A02EB82020CFA02FC23EA81
:10D300000C0391401943C16230BC704705490028A5
:10D31000D1F8040314BF40F4000020F40000C1F869
:10D3200004037047002001400029016814BF41F048
:10D33000010121F001010160704700002DE9F003B7
:10D34000016821F0010101600021016041608160FC
:10D35000C160016121214161444A45494FF03D08C6
:10D36000904202BFC1F80880BDE8F0037047414A0F
:10D370004FF47464904202BF8C60BDE8F0037047C4
:10D380003D4A4FF47415904202BF8D60BDE8F00332
:10D3900070473A4A4FF07466904202BF8E60BDE813
:10D3A000F0037047364B374A984202BFCA60BDE867
:10D3B000F0037047DFF8D0C0344B604502BFCB604C
:10D3C000BDE8F0037047324FDFF8C8C0B84202BF73
:10D3D000C1F80CC0BDE8F0037047DFF8BC904FF017
:10D3E0003D57484502BFCF60BDE8F0037047DFF806
:10D3F000AC902B49484502BFC1F80080BDE8F0035E
:10D400007047DFF8A080404502BF0C60BDE8F00324
:10D410007047254CA04202BF0D60BDE8F003704785
:10D42000224CA04202BF0E60BDE8F0037047204CC2
:10D430002049A04202BF0A60BDE8F00370471E4ABF
:10D44000904202BF0B60BDE8F00370471B4A904258
:10D4500002BFC1F800C0BDE8F0037047184A90420F
:10D4600008BF0F60BDE8F003704700001060024085
:10D470000060024028600240406002405860024064
:10D48000706002403D00002088600240400F002094
:10D49000A060024000003D20B860024010640240DD
:10D4A000086402402864024040640240586402401C
:10D4B000706402400C64024088640240A064024030
:10D4C000B864024011F0800F07D04369002A0CBFF6
:10D4D00023F0800343F080034361802908BF704735
:10D4E00001F01E01002A02680CBF22EA010111436B
:10D4F0000160704710B402681B4BD1F80CC01A4091
:10D500000B6843EA0C03D1E905C44CEA040C43EA76
:10D510000C03D1F81CC043EA0C03D1F820C043EA45
:10D520000C03D1F824C043EA0C03D1F828C043EA25
:10D530000C03D1F834C043EA0C03D1F838C043EAF5
:10D540000C031A4302604269D1E90B3C22F0070246
:10D5500043EA0C031A4342610A6942604A688260E6
:10D560008968C16010BC70473F801CF070B50C46E4
:10D5700005460CF029FA0022815CFF2905D02146DE
:10D58000284600F0B5FA80B270BD521CB2F5804F4B
:10D59000F2D3092070BD00000C490A880C490988A3
:10D5A00060B1012810D14EF6EE6009B11AB107E062
:10D5B000824207D108E0814206D103E022B109B1DD
:10D5C000AB207047012070470020704700400008E2
:10D5D000008000082DE9F05FDFF894920024651EBA
:10D5E000B9F80010A34E30882B0CDFF88C82DFF8DE
:10D5F0008CA2A6F1020B00297DD0A1F6EE61B1F557
:10D60000604146D001F6EF61B1F5005F08D002211C
:10D610000820FFF7ABFF092800F0188100F020B9BF
:10D62000E8B1A0F56E41EE394FF002014FF008006D
:10D6300004D0FFF79BFF09281BD024E0FFF796FFDB
:10D64000092818BFBDE8F09F0021304600F0C6FA57
:10D6500080B2092818BFBDE8F09F00F006B902218A
:10D660000820FFF783FF092818BFBDE8F09F00F0EE
:10D67000FCB80021484600F0B1FA092803D1022184
:10D680001020FFF773FF80B2092818BFBDE8F09F94
:10D69000EBE0A0B198424FF0020159D11020FFF702
:10D6A00065FF092818BFBDE8F09F0021484600F03B
:10D6B00095FA80B2092818BFBDE8F09FD5E0B9F807
:10D6C000060038F81470B84208BF25B2AC4228D022
:10D6D00001260020FFF760FFAB2808BFAB2614D05F
:10D6E00009EB80310BEB80308A1C90420DD9018808
:10D6F000B94207D100E040E030F8020CAAF800007F
:10D70000002602E0001F9042F1D8012E09D038F81F
:10D710001400BAF8001000F0DDF8092818BFBDE8C1
:10D72000F09F601C84B2B4F59D7FC8D300214846A9
:10D7300000F054FA80B2092818BFBDE8F09F02211A
:10D740001020FFF713FF092818BFBDE8F09F8CE0F9
:10D750000820FFF70BFF092809D10021484600F0F7
:10D760003DFA092803D102211020FFF7FFFE80B205
:10D77000092818BFBDE8F09F77E050B198421ED14C
:10D7800002211020FFF7F2FE092818BFBDE8F09F24
:10D790006BE002210820FFF7E9FE092809D10021EA
:10D7A000484600F01BFA092803D102211020FFF798
:10D7B000DDFE80B2092818BFBDE8F09F55E0F08873
:10D7C00038F814B0584508BF25B2AC4227D001271D
:10D7D0000020FFF7E1FEAB2808BFAB2713D0284A93
:10D7E00009EB803102EB80308A1C90420BD9018812
:10D7F000594505D130F8020CAAF80000002702E0D4
:10D80000001F9042F3D8012F09D038F81400BAF85D
:10D81000001000F05FF8092818BFBDE8F09F601CF9
:10D8200084B2B4F59D7FCAD30021304600F0D6F90A
:10D8300080B2092818BFBDE8F09F02210820FFF739
:10D8400095FE092818BFBDE8F09F0EE0002148466C
:10D8500000F0C4F9092803D102211020FFF786FE49
:10D8600080B2092818BFBDE8F09F0920BDE8F09FED
:10D870000040000800800008406500206200002091
:10D88000FE7F00082DE9F04104460E4601250F4FAA
:10D890000020FFF781FEAB2808BFBDE8F08107EB51
:10D8A00080310B4A02EB8032881C82420AD91388ED
:10D8B000A34204D132F8020C3080002502E0121F8E
:10D8C0008242F4D82846BDE8F081000000400008FC
:10D8D000FE7F000870B505460E46124C0120FFF78A
:10D8E0005BFEAB2808BF70BD04EB80340E4901EB32
:10D8F0008030844206D22168B1F1FF3F04D0241D5C
:10D900008442F8D3802070BD3146204600F066F98D
:10D9100009281CBF80B270BD2946A01C00F05EF92A
:10D9200080B270BD00400008FE7F00082DE9F84F6E
:10D930000C460746FFF7CEFF802818BFBDE8F88FDA
:10D940002646DFF8DC8000242046CDF80080FFF773
:10D9500023FEAB25012808BF4FF0100B08D000288C
:10D960001CBF2846BDE8F88F2E484FF0080B0090EA
:10D970004EF6EE61009800F031F9092802D080B22D
:10D98000BDE8F88F31463846FFF7A4FF092806BFE7
:10D99000DFF89490DFF894A0BDE8F88F39F81460B0
:10D9A000BE4227D001250020FFF7F6FDAB2808BFB7
:10D9B000AB2513D01E4A08EB803102EB80308A1C65
:10D9C00090420BD90188B14205D130F8020CAAF877
:10D9D0000000002502E0001F9042F3D8012D09D07D
:10D9E00039F81400BAF80010FFF774FF092818BFBF
:10D9F000BDE8F88F601C84B2B4F59D7FCED30221C0
:10DA00005846FFF7B3FD092818BFBDE8F88F00217D
:10DA1000009800F0E3F80928B1D1BDE8F88F0000C4
:10DA200000400008008000084065002062000020DF
:10DA3000FE7F00080149086070470000143C014067
:10DA4000034A0146002012680A4218BF01207047AD
:10DA5000143C0140C368214A0168002B34D013688C
:10DA600023EA01011160111D0A6803689A430A60E4
:10DA7000416801F1804101F59E310A6803681A434B
:10DA80000A60174A1168036899431160131D1968E9
:10DA9000D0F800C021EA0C0119608168102908D073
:10DAA00001F1804101F59E310A6800681043086069
:10DAB00070471168D0F800C041EA0C011160196884
:10DAC0000068084318607047406800F1804000F526
:10DAD0009E30026822EA010101607047003C01406B
:10DAE000083C014001490860704700000C3C0240BE
:10DAF00070B50646002551B1012908BF4FF4807565
:10DB000005D002290CBF4FF400754FF4407500F0AA
:10DB100099F8092818BF70BD0F4C206820F4407098
:10DB20002060206828432060206820F0F8002060F2
:10DB3000206846F0020108432060206840F48030ED
:10DB4000206000F07FF8216821F002012160216847
:10DB500021F0F801216070BD103C02400F490920FE
:10DB60000A6812F4803F1CBF012070470A6812F057
:10DB7000100F1CBF062070470A6812F4807F1CBF7C
:10DB8000022070470A6812F0E00F1CBF07207047A0
:10DB9000096811F0020F18BF082070470C3C0240C2
:10DBA00070B50D46064600F04DF8092818BF70BD47
:10DBB000094C206820F440702060206820602068B4
:10DBC00040F001002060357000F03CF8216821F041
:10DBD0000101216070BD0000103C024070B50D468F
:10DBE000064600F02FF8092818BF70BD0A4C2068BF
:10DBF00020F440702060206840F48070206020682D
:10DC000040F001002060358000F01CF8216821F010
:10DC10000101216070BD0000103C02400548006811
:10DC200010F0004F08BF70470349044801600449E1
:10DC300001607047103C024023016745043C0240EC
:10DC4000AB89EFCD08B509200090FFF787FF009062
:10DC500001280CBF114908BD09200A6812F4803F51
:10DC600018BF012016D10A6812F0100F18BF062045
:10DC700010D10A6812F4807F18BF02200AD10A6806
:10DC800012F0E00F18BF072004D10A6812F0020F4B
:10DC900018BF082000900128DED008BD0C3C0240CF
:10DCA000044A0029116814BF084321EA00001060EB
:10DCB0007047000030380240044A0029116814BF40
:10DCC000084321EA0000106070470000403802401D
:10DCD000044A0029116814BF084321EA00001060BB
:10DCE0007047000020380240044A0029116814BF20
:10DCF000084321EA000010607047000044380240E9
:10DD0000044A0029116814BF084321EA000010608A
:10DD100070470000243802400648016821F00101E4
:10DD20000160EFF30980683080F30988002080F3F8
:10DD30001188704734EF00E08A0721F0030101F1F8
:10DD4000804101F59831120F0F23D1F808C8934094
:10DD50002CEA0303C1F80838D1F80838904018437A
:10DD6000C1F80808704710B5202080F3118805F02D
:10DD7000A3FA002080F31188BDE8104002F0DCBA5D
:10DD80000029016812BF41F080014FF67F721140F7
:10DD9000016070470A884B88B1F806C01A438B8827
:10DDA00043EA0C031A430B891A434B8989891A43A6
:10DDB0001143416470470029416812BF41F00101DD
:10DDC0004FF6FE721140416070470123D0F820C029
:10DDD0008B40DB439BB20CEA03030362036A02FA43
:10DDE00001F189B21943016270470423D0F820C0C1
:10DDF0008B40DB439BB20CEA03030362036A02FA23
:10DE000001F189B2194301627047C94389B20161C6
:10DE100070470029016812BF41F001014FF6FE7200
:10DE20001140016070470029416C14BF41F400416A
:10DE3000C1F30E014164704710B5A0F18041B1F506
:10DE400080314AD0B0F1804F5BD0A0F18041B1F574
:10DE500080614CD0A0F18041B1F500615BD0A0F1B0
:10DE60008041B1F5406160D0A0F18041B1F58051B1
:10DE700065D0A0F18041B1F5A0516AD0A0F18041F8
:10DE8000B1F582316FD0A0F18041B1F5A03174D0ED
:10DE9000A0F18041B1F5A2317AD0A0F18041B1F575
:10DEA000A4317DD0A0F18041B1F5C05179D0A0F16D
:10DEB0008041B1F5E05175D0A0F18041B1F500513C
:10DEC00018BF10BD01210802FFF702FFBDE8104096
:10DED00000214FF48070FFF7FBBE01210846FFF7D9
:10DEE0000FFF0021BDE810400120FFF709BF01210D
:10DEF0000220FFF7EDFE0021BDE810400220FFF7F1
:10DF0000E7BE01210846FFF7E3FE0021BDE810400F
:10DF10000120FFF7DDBE01210420FFF7D9FE00211B
:10DF2000BDE810400420FFF7D3BE01210820FFF711
:10DF3000CFFE0021BDE810400820FFF7C9BE012137
:10DF40001020FFF7C5FE0021BDE810401020FFF7AC
:10DF5000BFBE01212020FFF7BBFE0021BDE810401D
:10DF60002020FFF7B5BE01210220FFF7C9FE0021E6
:10DF7000BDE810400220FFF7C3BE01210804FFF7EF
:10DF8000BFFEBDE8104000214FF48030FFF7B8BE5F
:10DF900001214804FFF7B4FE00214FF4003002E0F5
:10DFA00005E00FE018E0BDE81040FFF7A9BE012131
:10DFB0008804FFF7A5FEBDE8104000214FF4802043
:10DFC000FFF79EBE01214020FFF782FE0021BDE841
:10DFD00010404020FFF77CBE01218020FFF778FE33
:10DFE0000021BDE810408020FFF772BE30B4D0F8A9
:10DFF00008C01FFA8CF5D0F818C01FFA8CF4D0F8BE
:10E0000020C025F00705294324F0030424F44074BC
:10E0100040F201152C434FF6FF751FFA8CFC05EA00
:10E0200003132CF0220C1A4342EA0C028160846133
:10E03000026230BC70474161704703690022C068CA
:10E040000B4200EA01001CBF002801221046704765
:10E05000002AC26811BF1143C94389B21140C1608F
:10E06000704710B4026A4FF6FE731A400262026AE9
:10E07000436892B2D0F818C09BB21FFA8CFC0C888F
:10E080002CF0730C44EA0C0C8C8922F0020222431F
:10E090004C882243A0F18044B4F580341CBFA0F129
:10E0A0008044B4F582340DD1CC8922F00802224399
:10E0B0008C8822F0040222430C8A23F44073234309
:10E0C0004C8A23434360C0F818C0896841630262E8
:10E0D00010BC7047826992B222F00802114381613C
:10E0E000704730B4026A4FF6EF731A400262026A58
:10E0F000436892B2D0F818C09BB21FFA8CFC2CF483
:10E10000E6440D884FF6FF7C0CEA05252C438D89EB
:10E1100022F020020CEA05152A434D880CEA051569
:10E120002A43A0F18045B5F580351CBFA0F180459C
:10E13000B5F5823516D1CD8922F080020CEA05159D
:10E140002A438D8822F040020CEA05152A430D8AE5
:10E1500023F440630CEA85052B434D8A0CEA850CB9
:10E160004CEA03034360846189688163026230BCC6
:10E17000704782694FF6FF7392B222F4006203EA9D
:10E18000012111438161704730B4026A4FF6FF6389
:10E190001A400262026A436892B2D0F81CC09BB275
:10E1A0001FFA8CFC0C882CF0730C44EA0C048D894B
:10E1B0004FF6FF7C22F400720CEA05252A434D88B5
:10E1C0000CEA05252A43A0F18045B5F580351CBF32
:10E1D000A0F18045B5F5823516D1CD8922F40062D3
:10E1E0000CEA05252A438D8822F480620CEA052575
:10E1F0002A430D8A23F440530CEA05152B434D8A1C
:10E200000CEA051C4CEA03034360C4618968C163DE
:10E21000026230BC7047C26992B222F00802114318
:10E22000C161704730B4026A4EF6FF731A40026251
:10E23000026A1FFA82FC4268C36992B20D889BB2DF
:10E240004FF6FF7423F4E64304EA05252B438D893A
:10E250002CF4005C04EA053545EA0C0C4D8804EA10
:10E26000053545EA0C0CA0F18045B5F580351CBF9D
:10E27000A0F18045B5F5823505D10D8A22F48042A2
:10E2800004EA851422434260C36189680164C0F8CE
:10E2900020C030BC7047C2694FF6FF7392B222F4BF
:10E2A000006203EA01211143C1617047826892B2A2
:10E2B00022F0700211438160704782684FF67F73CD
:10E2C0001A408260826811438160704710B44FF039
:10E2D000010C046A00F118030CFA01FC6FEA0C0C43
:10E2E0001FFA8CFC04EA0C0CC0F820C0002918BFEF
:10E2F000082914D0A1F10400C0F34E0018440168AD
:10E3000048F6FF7301EA0301016001684FF6FF73ED
:10E3100003EA022241EA0201016010BC704703EBEC
:10E32000510001684FF68F7301EA03010160016833
:10E3300041EA0201016010BC704742684FF68F73DA
:10E340001A404260426811434160704782684FF64C
:10E35000F8731A4082608268114381607047C1621D
:10E360007047000010B40268DFF874C01D4B92B211
:10E37000604518BF984211D0B0F1804F1CBFA0F18A
:10E380008044B4F5806409D0A0F18044B4F5006401
:10E390001CBFA0F18044B4F5406403D14C8822F046
:10E3A00070022243A0F18044B4F580541CBFA0F158
:10E3B0008044B4F5A05403D00C8922F44072224367
:10E3C00002604A68C2620A888262604512BF98424F
:10E3D000897A01634FF00101416110BC7047000070
:10E3E0000000014000040140084810B5006800F03A
:10E3F0003D01074801600748026C002A1CBF406CC1
:10E400009047BDE8104001F097BF00000064024053
:10E4100008640240F8010120094810B500683D2158
:10E42000084A01EA9011880110600748826C002AAE
:10E430001CBFC06C9047BDE8104001F07DBF0000DC
:10E440000064024008640240F8010120094810B548
:10E4500000683D21084A01EA10410804106007489D
:10E46000026D002A1CBF406D9047BDE8104001F0CE
:10E4700063BF00000064024008640240F80101200C
:10E48000094810B500683D21084A01EA9051880505
:10E4900010600748826D002A1CBFC06D9047BDE820
:10E4A000104001F049BF00000064024008640240CF
:10E4B000F8010120084810B5006800F03D01074848
:10E4C00001600748026E002A1CBF406E9047BDE8FD
:10E4D000104001F031BF0000046402400C640240AF
:10E4E000F801012070B53B4E346D6069A16901EA05
:10E4F0000005656115F4805F08D0304602F071FCBC
:10E500007068026812B100213046904715F4005F30
:10E5100018BFD4F8080815F0080F05D07068C16856
:10E5200000291CBF3046884715F0100F0ED0202060
:10E5300080F31188A06920F01000A06106F160004E
:10E54000002104F0D0FF002080F31188D4F818488F
:10E5500015F4802F1BD014F0010F03D0002130469A
:10E5600012F09DFF14F0020F03D00121304612F08B
:10E5700096FF14F0040F03D00221304612F08FFFF3
:10E5800014F0080F03D00321304612F088FF15F471
:10E59000002F1BD014F4803F03D00021304612F02E
:10E5A000FFFF14F4003F03D00121304612F0F8FFC2
:10E5B00014F4802F03D00221304612F0F1FF14F43E
:10E5C000002F03D00321304612F0EAFFBDE870406F
:10E5D00001F0B2BEE0020120094810B500683D21FB
:10E5E000084A01EA9011880110600748826E002AEB
:10E5F0001CBFC06E9047BDE8104001F09DBE0000FA
:10E60000046402400C640240F8010120094810B57E
:10E6100000683D21084A01EA1041080410600748DB
:10E62000026F002A1CBF406F9047BDE8104001F008
:10E6300083BE0000046402400C640240F801012023
:10E64000094810B500683D21084A01EA9051880543
:10E6500010600748826F002A1CBFC06F9047BDE85A
:10E66000104001F069BE0000046402400C640240E6
:10E67000F801012010B5034815F00AF9BDE8104073
:10E6800001F05ABEE0050120074810B5016801F00D
:10E690003D01816005480268002A1CBF4068904720
:10E6A000BDE8104001F048BE00600240F8010120C2
:10E6B000084810B501683D2202EA91118A01826082
:10E6C00005488268002A1CBFC0689047BDE810401A
:10E6D00001F032BE00600240F8010120084810B588
:10E6E00001683D2202EA11410A048260054802697C
:10E6F000002A1CBF40699047BDE8104001F01CBED5
:10E7000000600240F8010120084810B501683D2270
:10E7100002EA91518A05826005488269002A1CBF7D
:10E72000C0699047BDE8104001F006BE006002409D
:10E73000F8010120074810B5416801F03D01C160B2
:10E740000548026A002A1CBF406A9047BDE8104095
:10E7500001F0F2BD00600240F8010120084810B548
:10E7600041683D2202EA91118A01C2600548826A2D
:10E77000002A1CBFC06A9047BDE8104001F0DCBD14
:10E7800000600240F8010120084810B541683D22B0
:10E7900002EA11410A04C2600548026B002A1CBF4C
:10E7A000406B9047BDE8104001F0C6BD00600240DC
:10E7B000F801012010B540F207410448FEF7A3FC20
:10E7C0000CF038FABDE8104001F0B6BD0020014061
:10E7D00010B50C4C0C48E16A8860202080F3118849
:10E7E00004F10800002104F006FE04F11C000121E0
:10E7F00004F014F9002080F31188BDE8104001F006
:10E800009BBD000078020120010101002DE9F041CB
:10E81000164CE06AC5684FF0000615F0030F4FF084
:10E82000200711D0416921F00201416187F311886D
:10E8300004F11000002104F0DEFD04F118000121B4
:10E8400004F0ECF886F3118815F0100F0AD0E06A96
:10E850001021C16087F3118804F1200004F0DEF874
:10E8600086F31188BDE8F04101F066BD7802012011
:10E870002DE9F041164CE06A05694FF0000615F0ED
:10E88000030F4FF0200711D0416921F010014161C1
:10E8900087F3118804F11000002104F0ACFD04F1AD
:10E8A0001800022104F0BAF886F3118815F0100F51
:10E8B0000AD0E06A1021016187F3118804F1200079
:10E8C00004F0ACF886F31188BDE8F04101F034BDE6
:10E8D000780201202DE9F0411C4CE06A45681C21BA
:10E8E000416015F0080F4FF000064FF020070FD0E1
:10E8F00003202060E06A016821F00201016087F3D3
:10E90000118804F12800002104F088F886F31188AA
:10E9100015F0040F16D0E06A8169826922F0700256
:10E92000826101F0070211F0700F18BF42F0080277
:10E9300087F3118804F1200042EA014104F06EF8E7
:10E9400086F31188BDE8F04101F0F6BC78020120A1
:10E9500010B54FF48070FFF773F8002808BF10BDA2
:10E960000AF05CFDBDE810404FF48070FFF762B81C
:10E9700010B5084C01212046FFF75FFB002808BFB7
:10E9800010BD0AF095FD2046BDE810400121FFF7BB
:10E990003CBA00000004004070B5244CE0680169F6
:10E9A000C268C9B202EA0105E94301616068042650
:10E9B000416931B115F0020F1FD02168042917D029
:10E9C0001BE015F0040F07D02168042904D18168E9
:10E9D00000291CBF2046884715F0020F18D0206878
:10E9E000042814D16068C16889B1204688470EE0C8
:10E9F000816800291CBF2046884715F0040F07D006
:10EA00002068042803D16068C1680029EDD1266020
:10EA100015F0010F05D06068016920468847032082
:10EA20002060BDE8704001F087BC0000A405012013
:10EA300070B53C48446BA1696569DFF8ECC045EAF4
:10EA4000014121F07F420146A2EB0C03098C624593
:10EA500008BFC1F347001AD006DC6FF44033D21868
:10EA600009D0012A15D055E0A3F580227A3A28D0A2
:10EA7000022A31D04EE0080A08BF21614AD006229E
:10EA800002EA112001F00101084340F0F00020618A
:10EA900040E0616821F400716160C16A09680A6838
:10EAA00042F001020A60616841F480516160C06A0D
:10EAB0000068406802282DD2206820F48060206021
:10EAC00028E0616821F400716160006B00680168F2
:10EAD00041F0010101601DE0C26A126852683AB15A
:10EAE00041F001010184206840F4A060206015E03D
:10EAF000616821F400716160216841F40071216056
:10EB0000202181F3118800211C3004F0ECFC00204E
:10EB100080F3118815F00A0F18BFA069BDE8704096
:10EB200001F00ABCA8020120080003003F4810B50C
:10EB3000406B416989B201F45F42D24342613B4874
:10EB4000026B1268136823F01F031360D0F830C003
:10EB5000DCF80020136813F0010FFBD19CF80820AB
:10EB6000DCF804303D2404FA02F21A60C26A12682A
:10EB7000136823F01F031360D0F82CC0DCF80020CA
:10EB8000136813F0010FFBD19CF80820DCF8043067
:10EB900004FA02F21A60002411F4807F84601CBF22
:10EBA0000122826011F4007F03D0826842F00202E9
:10EBB000826011F4806F0DD0426B536823F40073B0
:10EBC0005360426B136843F400731360826842F031
:10EBD0000402826011F4006F03D0826842F00802E0
:10EBE000826011F4804F03D0826842F0200282607C
:10EBF00011F4805F03D0826842F01002826011F449
:10EC0000004F81681CBF41F04001816049B1202163
:10EC100081F311886FF001011C3004F064FC84F36F
:10EC20001188BDE8104001F087BB0000A802012058
:10EC300010B5034814F02CFEBDE8104001F07CBB79
:10EC4000BC05012010B5084C02212046FFF7F5F95C
:10EC5000002808BF10BD11F04BFB2046BDE8104056
:10EC60000221FFF7D2B8000000040140084810B5A7
:10EC700041683D2202EA91518A05C2600548826BD3
:10EC8000002A1CBFC06B9047BDE8104001F054BB88
:10EC900000600240F801012010B50121C802FFF711
:10ECA00017F8BDE8104000214FF40060FFF710B8DE
:10ECB000024940F08000086070470000002C0040CE
:10ECC000024900F07F00086070470000002C0040FF
:10ECD000034A116821F4C0710843106070470000B6
:10ECE000042C0040054981B00A6800F07F0022F042
:10ECF0007F0210430090086001B07047042C004070
:10ED00007CB5044600201D46164600290BD0491E3E
:10ED1000CDE90041044B6A462946304601F038FBF4
:10ED2000009A002111707CBDD50A0108410008023B
:10ED300018BF04200A0E18BF40F001004FF07F42B8
:10ED400032EA010108BF40F00200012808BF052097
:10ED5000704715F0D3BC000010B54FF00E402DEDFC
:10ED6000028BB0EE408A18EE104A00EB4400B0F17E
:10ED7000506F4AD84FF0FC40B0EB440F22D2B0EEB7
:10ED8000C80AF7EE000A30EEC00AF6EE000A60EE9E
:10ED9000208A18EE900A15F04BFC01EE100A14F0D0
:10EDA000004F1DBFDFED2D0A9FED2D0AB1EE411A78
:10EDB000DFED2C0A08BF9FED2C0AF8EE001A21EEB9
:10EDC000218A05E0DFED290A68EE088AB0EE600AC4
:10EDD0009FED271ADFED271A30EE080A48EE811A58
:10EDE0009FED251A08EEA11ADFED241A48EE811ACC
:10EDF0009FED231A08EEA11A68EE281ABDEC028BCB
:10EE000001EE810A30EE200A10BD4FF0E440B0EB75
:10EE1000440F0CD918EE100AFFF788FF042808BF2A
:10EE200001F04CF8B0EE480ABDEC028B10BD4FF07B
:10EE30007F40B0EB440F07D2B0EE480ABDEC028B26
:10EE4000BDE8104001F024B8012001F0E9F8BDEC64
:10EE5000028BBDE8104001F021B800000000C9BFDE
:10EE600022AAFDB90000C93F22AAFD390000000016
:10EE700024FE1C3DC78AD83C1E67383D1B93993D34
:10EE8000AFAA2A3E10EE100A10B510EE901A4FF0FD
:10EE9000684202EB40032DED028BB3F1654F3CBF9E
:10EEA00002EB4102B2F1654F7CD200BFC0F3C75301
:10EEB000C1F3C7529A1A1B2A09DD10F0004F14BF84
:10EEC0009FED6E0A9FED6E0ABDEC028B10BD12F134
:10EED0001A0F1BDA11F0004F09D010F0004F0CBFD1
:10EEE0009FED680A9FED680ABDEC028B10BD80EEB5
:10EEF000208A18EE100AFFF719FF042808BF00F057
:10EF0000DDFFB0EE480ABDEC028B10BD4200B2EB53
:10EF1000410F37D910F0004F19BFDFED5C1A9FED9C
:10EF20005C1ADFED5C1A9FED5C1AB0EE602A0A46AF
:10EF3000F1EE400A80F00041B0EE420A10460A1A93
:10EF40005200B2F1807F34D2484010F0004FDFED24
:10EF5000532A9FED533A1DBFBEEE002A71EEE21A0E
:10EF600031EE431AB6EE002A04BF71EEA21A31EE5A
:10EF7000031AF0EE402A42EE602A40EE020A82EEC8
:10EF8000A02A18E011F0004F04BF9FED461AF0EEE2
:10EF9000411AD4D010F0004F1CBFDFED431A9FED93
:10EFA000431A00E026E004BFDFED411A9FED411A4D
:10EFB000C5E780EE202A22EE020ADFED3F0ADFEDF0
:10EFC0003F2ABDEC028B40EE202ADFED3D0A40EEE9
:10EFD000220ADFED3C2A40EE202ADFED3B0A40EE1C
:10EFE000220A22EE000A00EE201A31EE020A30EE6A
:10EFF000210A10BD4FF07F42B2EB400F28BFB2EBA9
:10F00000410F05D2BDEC028BBDE8104000F043BFBC
:10F0100040EA01035B0008BF41F0FF410BD0B2EBB7
:10F02000400F08BFB2EB410F08D120F0804000EE46
:10F03000100A21F0804100EE901A37E7B2EB400F42
:10F0400012BF5FEA410240F0FF4001F000413FF48F
:10F050002DAF4A0092EA40033FF528AF002AACBF2B
:10F060009FED1A1A9FED1A1A20EE010A60EE810A2E
:10F0700010EE100A10EE901A18E70000DB0FC9BF5F
:10F08000DB0FC93FDB0F4940DB0F49C00000C9BFA0
:10F0900022AAFDB90000C93F22AAFD390060ED3E59
:10F0A000C30ACE3700000000000049C022AA7DBA82
:10F0B0000000494022AA7D3A2DAD65BD8FB8D53DEF
:10F0C0000FB511BE61C84C3EA8AAAABE0000804F71
:10F0D0000000802F10EE101A08B5444A6846B2EBC3
:10F0E000410F28D94FF0E640B0EB410F94BF00200C
:10F0F0004FF0FF3000900098002861DB60EE000ABE
:10F1000010F0010F45D010F0020FDFED391A9FED1E
:10F11000391A00EEE11ADFED381A40EE811A21EEBD
:10F12000A01AF0EE400A40EE010A08BFF1EE600AB4
:10F13000B0EE600A08BD314B21F0004293423CD949
:10F1400011F0004FDFED2E0A20EE201ADFED2D0A20
:10F1500019BF31EE601A71EE200A31EE201A71EEFD
:10F16000600ABDEEE01A11EE100A9FED271A00F0BA
:10F17000030000EEC10A9FED251A009000EEC10ABF
:10F180009FED231A00EEC10A9FED221A00EEC10A7C
:10F19000B1E79FED211A9FED210A10F0020F00EE5A
:10F1A000810A9FED1F1A00EE801AB7EE000A00EEEA
:10F1B000810A18BFB1EE400A08BD00F087FE9AE749
:10F1C00010EE100A4000B0F17F4F3CBFB7EE000ACE
:10F1D00008BD07D14FF0010000F022FFBDE8084054
:10F1E00000F05CBEBDE8084000F052BEB61F927E43
:10F1F000336D4C39DA82083CA0AA2ABE490E494632
:10F2000083F9223F0000004B0000C93F00A0FD39F8
:10F210000020A2331A61342CB93AB2BACA9F2A3DEF
:10F22000DDFFFFBE10B510EE104A4FF019406849DF
:10F23000002200EB44002DED028B884257D8DFED11
:10F24000650A14F0004F60EE200A14BFBEEE001AEB
:10F25000B6EE001A71EE200AFDEEE00A10EE900AFA
:10F2600000EE900AF8EEE00A9FED5B1A00EEC10A8C
:10F270009FED5A1A00EEC10ADFED590A9FED591AA7
:10F2800000EE201ADFED580A40EE010A9FED571AF2
:10F29000574B00F0030100EE201A21EE000A7B44D8
:10F2A00003EB8103D3ED000A524B7B4403EB810354
:10F2B00093ED001A504B41EE000A7B4403EB8101B1
:10F2C000801091ED000A70EE800AEABB00EE100A91
:10F2D000B8EEC01ADFED491A9FED490ABDEC028B6A
:10F2E00001EE210ABCEEC00A20EE200A10BD4FF04C
:10F2F000FF40A0431BD04FF0CE40B0EB440F82BF85
:10F30000B7EE000ABDEC028B10BD3E48B0EB440FD7
:10F3100028BF012293D2022000F082FE14F0004F99
:10F3200015D0BDEC028BBDE8104000F0C7BD14F550
:10F33000000F02BF9FED340ABDEC028B10BDBDEC87
:10F34000028BBDE8104000E007E000F0A1BDBDEC7D
:10F35000028BBDE8104000F0A9BD00EBD07359103E
:10F360004FF07E5202EBC15100EE101AA0EB630089
:10F3700002EBC05060EE200A00EE100A20EE208A58
:10F3800018EE100A88B118EE100AB0F1FF4F15D030
:10F3900018EE100AFFF7CAFC042808BF00F08EFD23
:10F3A000B0EE480ABDEC028B10BD022000F038FE22
:10F3B000BDEC028BBDE8104000F080BD022000F0E3
:10F3C0002FFEBDEC028BBDE8104000F06FBD0000C9
:10F3D0000000501E3BAAB8400070313EF4FD0537D6
:10F3E00012BB2A3D12BB2A3EFFFFFF3EFFFF7F3FBD
:10F3F00012AE010016AE0100E6AD01000000004BA8
:10F4000000007E4E0000A0850000000010EE100AF3
:10F41000C0F3C7517F391729A8BF7047DFED140A21
:10F42000002970EE200A0DDAF5EEC00AF1EE10FAAE
:10F430001ADD0028A8BF002016DAB0F1004F18BF6F
:10F440000C4811E00C4ACA40104208BF7047F5EE64
:10F45000C00AF1EE10FA07DD002804DA4FF40003C9
:10F4600023FA01F10844904300EE100A70470000AF
:10F47000CAF24971000080BFFFFF7F0010B52DED7B
:10F48000028BF0EE408A18EE900AB0EE608A20F00F
:10F490000040C0F1FF40C00F07D118EE100A20F065
:10F4A0000040C0F1FF40C00F2BD018EE101A18EE2C
:10F4B000900AFDF77DF900EE100A10EE100A6FEACF
:10F4C000D05010F0FF0F04BFBDEC028B10BD18EE42
:10F4D000900A00F0004110EE100A00F00040814256
:10F4E00004BFBDEC028B10BD18EE101A10EE100A0E
:10F4F000BDEC028B61F31E0000EE900A30EE600A54
:10F5000010BD18EE900A4FF07F41B1EB400F1CBFC9
:10F5100018EE100A5FEA4000C7D1012000F080FD1C
:10F52000BDEC028BBDE8104000F0B8BC10EE101A24
:10F530000023036021F00042B2F1FF4FA8BF7047E3
:10F54000002A08BF7047B2F5000F0ADA6FF0160301
:10F55000DFED0A0A036020EE200A10EE101A21F0F7
:10F5600000426FF07D0C0CEBE2521A44026021F075
:10F57000FF4040F07C5000EE100A70470000004B46
:10F5800010EE102A6FEAD25212F0FF0F1ABFB5EE3A
:10F59000C00AF1EE10FA704710B501462DED028B4E
:10F5A00010EE100AFDF7DAF808EE100A18EE100A4D
:10F5B0006FEAD05010F0FF0F19D0B5EEC08AF1EE0F
:10F5C00010FA1EBFB0EE480ABDEC028B10BD02203F
:10F5D00000F026FD00F072FC10EE101A18EE100A72
:10F5E000BDEC028B61F31E0000EE100A10BD02207C
:10F5F00000F016FD00F05AFC10EE101A18EE100A7A
:10F60000BDEC028B61F31E0000EE100A10BD00007D
:10F6100010EE100A10B50023A0F50001B1F1FE4F65
:10F6200067D200BF00F500216FF07E0202EBE15CC3
:10F63000C1F302524FF07E5101EB025100EE901ADD
:10F64000A0EBCC5003EB0C0100EE100A51EA0200D3
:10F6500036D030EE601A70EE200A9FED3D2A3E480B
:10F6600081EE200A9FED3B1A60EE000A00EE821A3E
:10F6700060EE201A61EE810A784401EE101A00EB68
:10F6800082009FED362AB8EEC11AD0ED001A344838
:10F6900041EE021A784401EE101A00EB8200B8EE37
:10F6A000C11A90ED002ADFED2F2A01EE222AB0EEDA
:10F6B000001A72EE200A40EE010A31EEA00A10BDD7
:10F6C000F7EE000A9FED291A30EE600ADFED260AF8
:10F6D00000EE201ADFED260A60EE001A40EE010A65
:10F6E0009FED241A00EE201A61EE810A30EE200A06
:10F6F00010BD4FF07F41B1EB400F03D2BDE8104089
:10F7000000F0C6BBB0F1FF4F08BF10BDB5EEC00A98
:10F71000F1EE10FA06D2012000F082FCBDE81040A4
:10F7200000F0BCBBB5EEC00AF1EE10FA07D1022022
:10F7300000F076FC00F0A2FBB1EE400A10BDDFED58
:10F740000E0A6FF0160320EE200A10EE100A69E789
:10F7500066F1CC3EAAAA2A3F58AA01000070313FA8
:10F760005CAA0100F4FD053821ED423E0A1180BE7D
:10F77000C1ABAA3EFFFFFFBE0000004B10B510EE6C
:10F78000100A2DED068BB7EE001A10EE901AB0EEAF
:10F79000418A0022A0F5000CDFEDFE9A4FF00073C5
:10F7A000BCF1FE4F4FF07F4403EB410C80F0B4817D
:10F7B000BCF1804FC0F02082F74901449FEDF73A39
:10F7C000B1F5005F40F2D48200F58021CB0C03F04C
:10F7D0000F0101EE901AC3F307137F3BA0EBC35058
:10F7E000B8EEE12A00EE100A1A44DFEDED2AF0EE41
:10F7F000411A42EE221AF0EE613A70EE232A30EE00
:10F80000632A12EE900A00F500606FF30B0001EE20
:10F81000900A73EEE13A33EE804AC1EE223A22EECC
:10F82000230A10EE100A00F500606FF30B0000EEE3
:10F83000100A00EE612A00EE442A62EE232A70EEDE
:10F84000221A21EEA12ADFEDD73A02EE233A23EE67
:10F85000023A20EE012A22EE811A03EE211A32EE3C
:10F86000010A10EE100A00F500606FF30B0000EEC5
:10F87000100A72EE401A31EE812A9FEDCB1A60EE2B
:10F88000011A9FEDCA1A20EE011A9FEDC90A02EE75
:10F89000001A31EE810A10EE100A00F500606FF3D5
:10F8A0000B0000EE100AC34871EEC01A31EE812A37
:10F8B000784400EBC10090ED003AD0ED011A100140
:10F8C00001EE100AF8EEC12A32EE211A31EE001ACA
:10F8D00031EE031A31EE221A11EE100A00F5006023
:10F8E0006FF30B0009EE100A39EE621A31EE431A7B
:10F8F00031EE400A30EE610A32EE40AA10EE900A74
:10F90000002100F500606FF30B0008EE900A084636
:10F9100070EEE8AAFDF756F929EE280A00F00C016E
:10F92000F0EEC00A10EE900AB0F18B4F0DDD10EE34
:10F93000900AB4EB400F08D310EE100A4FF08B4240
:10F9400062F31E0008EE900A13E069EE2A0A38EE10
:10F95000AA1A4AEE010A30EE201A11EE100A00F53A
:10F9600000606FF30B0008EE900A30EE680A70EE4C
:10F97000209A0C20FDF726F938EEA90AB5EEC00A48
:10F98000F1EE10FA34BFFEEE000AF6EE000A30EE99
:10F99000800ABDEEC00A10EE100A011100EE101A26
:10F9A000F8EEC00A00EE100AB8EEC00A38EEC00A3F
:10F9B00030EE290ADFED801A9FED801A00EE211A41
:10F9C000DFED7F1A7F4900F00F0040EE011A21EEB3
:10F9D000800A794401EB800191ED001A7A4979445B
:10F9E00001EB8001D1ED001A784901EE801A7944CB
:10F9F00001EB8000764990ED000A31EE001AB0EE7E
:10FA0000E00A10EE100A884215DA10EE100AB4EB84
:10FA1000400F10D39FED6F0A30EE800ADFED6E0AC3
:10FA200020EE200A68EE010ABDEC068BBCEEC00A8F
:10FA300020EE200A10BD10EE100A6849884243DA11
:10FA400010EE100AB4EB400F3ED3BDEEE00A68EEB4
:10FA5000010A10EE100A00EBD0725110C90501F135
:10FA60007E5100EE101AA0EB6200C00560EE200A85
:10FA700000F17E5000EE100A60EE808A18EE900AC7
:10FA8000B4EB400F0FD1022000F0CAFA00F00EFADA
:10FA900010EE101A18EE100ABDEC068B61F31E0072
:10FAA00000EE100A10BD18EE900A400011D018EEBA
:10FAB000900AFFF73BF9042808BF00F0FFF9B0EE09
:10FAC000680ABDEC068B10BDF5EEC00AF1EE10FA27
:10FAD0000FD2022000F0A4FA00F0F0F910EE101A94
:10FAE00018EE100ABDEC068B61F31E0000EE100A42
:10FAF00010BD022000F094FA00F0D8F910EE101AB0
:10FB0000B0EE480A10EE100ABDEC068B61F31E0041
:10FB100000EE100A10BD00BFBCF1804F6CD300BFD7
:10FB200000F1FF43B3F1FE4F24D200BFB0EEC00A94
:10FB300010EE100AC1F3C7537F2B0DDB972BBFF6D6
:10FB40003BAEC3F196034FF0010C0CFA03F3A3F1A3
:10FB5000010C1CEA010F08D0012000F061FABDEC95
:10FB6000068BBDE8104000F099B90B4218BFBFEEFC
:10FB7000008A21E643001CBF4FF08073B3EB400FB7
:10FB800034D96FF01A02DFED161A20EE210A10EEBA
:10FB9000100A27E000000000001080C0ABAAAA3EB7
:10FBA0000000803D7EE24C3E00B03842D49AB8BBA3
:10FBB0003BAA384260A80100FC596337C9FF753A77
:10FBC0001872313DFEA7010032A80100A2A7010072
:10FBD0000000FC420000FE420000004B00004043D9
:10FBE0000000004D10F0004FA0D1E5E5A0F50003A6
:10FBF000B3F1FE4F21D2DFE503EB4103B3F1007F08
:10FC000011D3F5EEC00AF1EE10FA05D1430018BF8A
:10FC1000B4EB400F76D883E701F0004141F0FC518E
:10FC200000EE901A7CE7B3F1807F06D210EE903A96
:10FC3000A3F5000300EE903A72E720F000426FF067
:10FC4000FF4C604C02EB0C03A34210D321F00043A5
:10FC50009C44A4450BD3B0F17E5F18BF5FEA410C12
:10FC600050D0B2F1FF4F98BFB3F1FF4F05D9BDECB3
:10FC7000068BBDE8104000F00EB9B0F1FF4F0FD079
:10FC8000C1F3C7527F2A09DB972A11DAC2F1960223
:10FC9000012303FA02F2531E0B4205D0002208E0B2
:10FCA00011F0004F55D128E00A4218BF012200D1BF
:10FCB000022210F5000F13D028B3B0F1004F26D068
:10FCC00010F1814F4FD04FF0FE42B2EB400F94BF86
:10FCD00001200020012202EBE171884239D10CE0C1
:10FCE00011F0004F02D0012A38D032E0012A02BFC1
:10FCF0009FED350ABDEC068B10BD9FED340ABDECBF
:10FD0000068B10BD2FE011F0004F0CD121E0B1F1B6
:10FD1000FF4F1ED011F5000F05D011F0004F15D088
:10FD20000AB1012A08D0022000F07AF9BDEC068B56
:10FD3000BDE8104000F0A2B8022000F071F900F018
:10FD40009DF8BDEC068BB1EE400A10BD0AB1012A48
:10FD500004D0B0EE690ABDEC068B10BDBDEC068B7D
:10FD60009FED1B0A10BDBDEC068BB7EE000A10BD5F
:10FD700030EE410AB5EE001A9FED172A00EE413A27
:10FD8000B6EE001A60EE001A00EE431A61EEC11AD8
:10FD90009FED101A20EE011A20EE020A9FED0F2AA5
:10FDA00001EE820A71EE001A11EE900A00F5006071
:10FDB0006FF30B0009EE100A31EE491A31EE00AA7A
:10FDC0009CE50000FFFF3F00000080FF0000807FF7
:10FDD0000000008000B0B841D49A38BB3BAAB841BB
:10FDE00010B52DED028BB0EE408A18EE100AFCF72C
:10FDF000C1FC01EE100A18EE100AB7EE000A78EE08
:10FE0000410A10F0004F4FF07F4010EE901A12D0D0
:10FE1000B1F13F4F24BF10EE901AB0EB410F12D258
:10FE200010EE901AB1F17C5F1CDD10EE901AB0EB71
:10FE3000410F17D314E0B1F13F4F07D910EE901ADC
:10FE4000B0EB410F02D331EE401A0BE010EE901AE6
:10FE5000B1F17C5F06DB10EE901AB0EB410F01D3DD
:10FE600031EE001A18EE100ABDEC028B11EE101ADA
:10FE700061F31E0000EE100A10BD0000DFED030A62
:10FE8000B7EE001A81EE200A704700000000000063
:10FE900030EE000A704730EE200A7047DFED020AAC
:10FEA00080EEA00A70470000000000009FED020AEB
:10FEB00020EE000A70470000000000709FED020A6B
:10FEC00020EE000A70470000000000102DE9F0014C
:10FED0004FF07F42B2EB410F9FBF4FF0FF31016007
:10FEE000BDE8F00170474FF0004242EA0123C1F340
:10FEF000C752783A551112F01F0C434CCCF1200632
:10FF00007C44C1F3C752A2F178024FEA621204EBBB
:10FF1000820254F8254008BFD2E9015612D0556834
:10FF200004FA0CF425FA06F73C43976805FA0CF539
:10FF300027FA06F8D26807FA0CFCF24045EA0805F1
:10FF40004CEA0206A4FB034CA5FB0352A6FB036389
:10FF50001D449D4234BF012600261319334416B1B7
:10FF6000934202D903E0934201D2012200E0002231
:10FF7000624402F1200C9206DC0C42EA443200EEAC
:10FF8000102A5B03DFED210AF8EEC01A00EE103AEA
:10FF90004FEA9C1C11F0004FB8EE400AC0F800C0B8
:10FFA00020EE201A00EE105ADFED190AB8EE400AD2
:10FFB00020EE200A71EE810A70EE800A10EE902A7F
:10FFC00002F500626FF30B0200EE902A70EEE11A68
:10FFD00031EEC11ADFED101A30EE411A9FED0D0A15
:10FFE00020EE800A01EE210A9FED0C1A00EE810A34
:10FFF00004BFBDE8F0017047CCF180510160BDE85D
:020000040801F1
:10000000F001B1EE400A704750A301000000003635
:100010000000802C22AAFD29DB0FC92F0000C92F68
:1000200001490860704700007C040020044820F06B
:10003000070104480160044921F00701416070474D
:100040000F26012058040020000002202DE9FF5F48
:1000500082B00021DDE90430020DDDF840B0034339
:1000600018D044F61050A2F2FF32424315141198F2
:1000700001281FD0A5EB0B00401C5FEA000A4FF0DF
:1000800000064E4FDFF83891B046504615D5CAF1FC
:10009000000413E0119801244AA3012801D16FEA5A
:1000A0000B010298119AC0E90031C0E9024206B082
:1000B000BDE8F09FCBF10000DFE704460021404A95
:1000C000491842EB0450CDE9001012E0E00707D0D8
:1000D00032463B4640464946FCF73AFC8046894654
:1000E00032463B4610461946FCF732FC06460F46A0
:1000F0006410002CEAD1DDE90401DDE90023BAF146
:10010000000F06DAFCF724FC42464B46FCF720FCC5
:1001100005E0FCF78FFC42464B46FCF78BFC04469F
:100120000E460022284BFCF719FD03D84FF0FF3094
:10013000014607E00022254B20463146FCF761FBD3
:10014000FCF7F3FC102409E0002C0ADB0A22002350
:10015000FCF791FA039B30321A55641E50EA0102F3
:10016000F2D1641C039AC4F111031444119A012AB8
:1001700003D0012208430DD10AE0084304D0002037
:100180004FF0110B119072E7A3EB0B056D1E0DE004
:100190005B4504DD4FF0000205F1010504E003DAE0
:1001A0004FF00002A5F10105002AECD00298119948
:1001B000C0E90231C0E9004579E7000000001440C1
:1001C0000000F03F300000000000F0430000E03F7E
:1001D0000648054940F8081B002140F8081B40F874
:1001E000041C02F027BE0000E129010880FF002066
:1001F000FEE730380A2801D20120704700207047FE
:1002000010B504461B48026840F2FF110A43026021
:100210001948026811430160214618480AF04AFB58
:1002200004F11C0116480AF045FB04F13801154899
:100230000AF040FB04F1540113480AF03BFB04F1BF
:10024000700112480AF036FB04F18C0110480AF0E4
:1002500031FB04F1A8010F480AF02CFB04F1C401A2
:100260000D480AF027FB04F1E001BDE810400B48FF
:100270000AF020BB303802405038024000000240F3
:100280000004024000080240000C0240001002403E
:100290000014024000180240001C024000200240EE
:1002A0002DE9F04F02F00306C2F38005C2F3C1044A
:1002B000C2F3411CC2F3C31800224FF00F094FF0E4
:1002C000010A4FF0030B11F0010F29D05307DB0E89
:1002D00008FA03F709FA03F3082A34BFD0F820E03C
:1002E000D0F824E02EEA03033B4334BF03624362A9
:1002F0000AFA02F3476827EA03032B4343605300DB
:1003000087680BFA03F39F4327438760C7689F43BF
:1003100047EA0C07C760076827EA03033343036013
:10032000490808BFBDE8F08F6D00A400B6004FEA91
:100330008C0C521CC7E7000010B5202080F31188F8
:100340000F48006810F4006F02BF002080F311888E
:1003500010BDF1EE100AEFF30980A0F168044FF030
:100360008070E0610748006884F30988206602F025
:10037000E5FE002814BF04480448A06110BD000039
:1003800004ED00E03CEF00E027C000082BC00008AF
:100390002DE9FF4F95B09B468946064600250FE2A2
:1003A000252877D100242746F84A0121059400E04A
:1003B000044316F8013F203B01FA03F01042F7D145
:1003C00030782A2811D06FF02F033078A0F1300256
:1003D000092A16D8059A44F0020402EB820203EBC4
:1003E00042021044761C0590EFE759F8042B059261
:1003F000002A03DA504244F40054059044F0020409
:10040000761C30782E2816D116F8010F44F004041B
:100410002A280DD06FF02F023078A0F13003092B7D
:1004200009D807EB870302EB4303C718761CF3E7F1
:1004300059F8047B761C30786C280FD006DC4C28E9
:1004400017D068280DD06A2814D104E0742810D081
:100450007A280FD10DE044F400140AE044F480142B
:1004600001E044F440147278824202D104F5801411
:10047000761C761C307866280BD013DC582877D091
:1004800009DC002875D04528F6D04628F4D0472846
:100490001AD19DE118E0632835D0642879D0652809
:1004A00012D195E1702873D008DC6728F1D0692853
:1004B0006FD06E280DD06F2806D1B5E073282CD0F0
:1004C000752875D0782874D05A46179990476D1CB6
:1004D00075E1C4F30250022809D003280DD0D9F8E1
:1004E000001004280DD00D6009F1040967E1D9F866
:1004F0000010EA17C1E90052F6E7D9F800100D80A4
:10050000F2E70D70F0E719F8041B8DF800100020D9
:100510008DF80100EA46012003E059F804AB4FF0E2
:10052000FF3061074FF0000102D40DE008F1010136
:100530008846B9420FDA8045F8DB1AF8081000291E
:10054000F4D108E008F1010188468142FADB1AF88B
:1005500008100029F6D105985B46A0EB0807214654
:100560003846179A00F094FA284400EB080507E093
:100570004DE029E10DE01AF8010B5A461799904712
:10058000B8F10108F7D25B4621463846179A13E1C5
:1005900042E00A220092C4F302524FF0000A022AFB
:1005A00008D059F804CB032A4FEAEC710AD00DE0C9
:1005B00029E02AE009F1070121F00702F2E802C16F
:1005C000914609E00FFA8CFC4FEAEC71042A03D142
:1005D0004FFA8CFC4FEAEC71002907DA0A46002139
:1005E000DCF1000C61EB02012D2202E0220504D5B2
:1005F0002B228DF80420012203E0E20701D0202203
:10060000F7E7904659E00A2102E010220DE01021A0
:100610004FF0000A00910BE010224FF0000A44F066
:1006200004040827009203E008224FF0000A009219
:10063000C4F30252022A05D059F804CB0021032A40
:1006400008D009E009F1070121F00702F2E802C130
:10065000914605E01FFA8CFC042A01D10CF0FF0C36
:100660004FF00008220728D5702806D0009B83F0A1
:10067000100353EA0A0305D00EE040228DF804204F
:10068000012208E05CEA010206D030228DF8042045
:100690008DF8050002229046009B83F0080353EA80
:1006A0000A030AD15CEA010201D1620705D53022B2
:1006B0008DF804204FF001087F1E582804D034A084
:1006C00003900EA802900DE036A0F9E7534660466D
:1006D000009AFBF7D0FF84460398825C0298401E84
:1006E000029002705CEA0100F0D1029806A9081A93
:1006F00000F1200A600702D524F4803400E00127CD
:10070000574502DDA7EB0A0000E0002000EB0A01DC
:10071000009005984144401A0590E00306D45B46DA
:100720002146179A059800F0B3F90544002706E022
:1007300001A85A46C05D179990476D1C7F1C47451C
:10074000F6DBE0030CD55B462146179A059800F0CE
:100750009FF9054404E030205A46179990476D1CD4
:100760000099481E00900029F5DC08E002980299E3
:100770005A460078491C0291179990476D1CBAF1AE
:100780000001AAF1010AF1DC65E10000092801007D
:1007900030313233343536373839616263646566F7
:1007A00000000000303132333435363738394142B9
:1007B000434445460000000000F058F90544761C0B
:1007C000307800287FF4ECAD19B02846BDE8F08FF2
:1007D000620700D4062709F1070222F0070CFCE8A3
:1007E0000223E14603F000485FEA080C02D00FF252
:1007F000702C0DE05FEA045C02D50FF2682C07E074
:100800005FEAC47C02D00FF2602C01E0AFF2700C02
:100810004FF0FF3823F00043CDF850C065280CD0CE
:1008200006DC452809D046281DD047283DD13DE0AB
:10083000662818D067287ED138E00021112F01DB0F
:10084000112000E0781CCDE9000106A90EA8FFF7F1
:10085000FDFBDDE90F010E9A03910021009207F1E3
:10086000010A04914DE04FF000400097CDE90110DE
:1008700006A90EA8FFF7EAFBDDE90F0203920E9B23
:1008800011990022DDF80CA00093049211B9791C93
:1008900000EB010AB7EB0A0004D4C0F1FF3007F106
:1008A000010A0490AAEB0700019044E0012F00DA4E
:1008B00001270021112F01DD112000E03846CDE98C
:1008C000000106A90EA8FFF7C1FBDDE90F010E9A92
:1008D0000391002104910092BA4621070CD4039998
:1008E000514500DA8A46BAF1010F05DD009AAAF1F6
:1008F0000101515C302908D0B84202DA10F1040F2E
:1009000006DA0121CDE9011015E0AAF10101E9E7BC
:10091000002805DC049901440491AAEB000102E0DF
:10092000411C514500DD8A460499401A401C019043
:100930004FF000400290200704D40198504501DB9D
:10094000CDF8048000208DF84F0002980DF14F077C
:10095000B0F1004F25D02B200E9002984FF00208E6
:1009600000280CDA404202902D200E9007E00A2168
:100970000298FBF76AFE3031029007F8011DB8F1CA
:100980000001A8F10108F2DC02980028EFD1791EDD
:100990000E980870307800F0200040F0450007F80D
:1009A000020D12A8C01B00F107081498007800B1CE
:1009B000012000EB0A01019801EBE0710598414428
:1009C000401A401E0590E00306D45B462146179A64
:1009D000059800F05DF805441498007818B15A465F
:1009E000179990476D1CE00324D55B462146179A62
:1009F000059800F04DF805441CE00498002807DB3A
:100A0000DDE90301884203DD0098405C179901E0AD
:100A1000179930205A469047049805F10105401C6B
:100A200004900198401E019004D12E205A46179937
:100A300090476D1CBAF10001AAF1010ADDDC05E066
:100A400017F8010B5A46179990476D1CB8F1000131
:100A5000A8F10108F4DC5B462146179A0598ABE63D
:100A60002D0000002B000000200000002DE9F041C7
:100A7000044600251E461746880404D405E039467E
:100A80002020B0476D1C641EF9D52846BDE8F081D2
:100A90002DE9F041044600251E469046C80301D5C5
:100AA000302700E02027880404D505E04146384679
:100AB000B0476D1C641EF9D52846BDE8F0810000E2
:100AC0000348002100604060816000614061704720
:100AD000A0FF00204A68002A06D00A68531C0B6059
:100AE00010704868401E4860704700000222816014
:100AF0000277002242770423C377C0E90F21826383
:100B00000262012181778261064A02615169416175
:100B1000086100F1280150618162091DC162016311
:100B200070470000A0FF002010B50A4C002086B0DE
:100B3000A067411ECDE90010CDE9040002900390AA
:100B4000684602F0EFFB684602F0F2FB0298A067ED
:100B500006B010BDA0FF002070B50446406B2026F3
:100B60000025072828BF70BDDFE800F04B04144BB8
:100B70004B444B0094F84A1094F84B0041EA002192
:100B8000E06B884206D2E268118AB0FBF1F301FB08
:100B90001300A0B103206063E16820468A692946FA
:100BA0001570D5605560956017F0F0FC86F31188DC
:100BB00062890021204612F0010F18D112E052691B
:100BC000294620461570D5605560956017F005FDE3
:100BD00086F311880021204617F0B5FB85F31188B4
:100BE00002201DE042F00102428117F0C6FF85F3AA
:100BF000118870BD226C002A1CBF20469047656397
:100C000070BD0021204617F021FF0021204617F07B
:100C100027FF6068026812B1052120469047062030
:100C2000606370BD70B50446406B0025072828BF7F
:100C300070BDDFE800F02727271A042727000520CA
:100C40006063E16820464A6929461570D5605560A1
:100C5000956017F0C2FC202080F311880021204607
:100C600017F071FB85F3118870BDE06880698068BA
:100C7000002818BF70BD216C00291CBF2046884782
:100C8000656370BD0021204617F0E0FE002120467C
:100C900017F0E6FE6068026812B105212046904711
:100CA0000620606370BD70B50025044600F1440263
:100CB000456317F055FE6068816811B1204688478A
:100CC00040B994F8440010F0600F2FD1204607F08F
:100CD00079FE58B394F84A1094F84B0041EA00208A
:100CE000E16B814288BFE06394F84400E36B10F04D
:100CF000800F4FF020064FF001003FD03BB3606300
:100D0000E168D4F838C020464A6929461570C2F80F
:100D10000CC0C2E9013517F060FC86F31188002190
:100D2000204617F010FB85F3118870BD0021204686
:100D300017F08CFE0021204617F092FE60680268D2
:100D400012B10521204690470620606370BD032044
:100D50006063E16820468A6929461570D560556050
:100D6000956017F013FC86F31188628900212046F4
:100D700012F0010F1AD085F3118870BDE3B1042081
:100D80006063E168D4F838C020468A692946157046
:100D9000C2F80CC0C2E9013517F0F8FB86F31188E0
:100DA00062890021204612F0010FE4D142F00102D5
:100DB000428117F0E2FEDEE705206063E16820462D
:100DC0004A6929461570D5605560956017F005FC95
:100DD00086F311880021204617F0B5FA85F31188B3
:100DE00070BD022100220160A0F84C2080F84E2046
:100DF00080F84F2002814281114600EB8103491C9B
:100E0000DA600329F9D9426317F0B4BD0548A0F1AF
:100E10001C01C86108624FF0FF3048620020886200
:100E200070470000BCFF00202DE9F04FFA49DFF8C1
:100E3000ECB3F7A02DED0A8B83B0896988619BF82C
:100E40000010F74800294FF0200208BF402107D0CA
:100E50004FF480610446FFF723FA202291012046D7
:100E6000FFF71EFA01208BF802009FEDEECADFEDBE
:100E7000EECADFEDEEBADFF8B883B7EE00BADFED09
:100E8000EDAAD8F8401042F21070B0FBF1F6002E37
:100E900008BF0126304602F030FB9BF8010038B154
:100EA00000208BF8020003B0BDEC0A8BBDE8F08F88
:100EB0000AF0AEF8002818BFCBED01AADE4CA089DD
:100EC00000EE100AB8EE400A20EE0C0A20EE2C0AC2
:100ED0008DED000A8BED030A98F81C0010B3D7497A
:100EE000DBF8240001EB8002401C82ED000ACBF805
:100EF00024000528A4BF0020CBF82400CDED00AAD3
:100F0000002001EB8002DDED000A92ED000A401C9A
:100F1000052830EE200A8DED000AF2DB20EE2B0AC8
:100F20008DED000AD8F80000022818BF05287DD0F2
:100F3000092818BF0C2879D098ED031AD8ED020AB9
:100F4000B7EE002AF0EE6A1A9DED000A17F09EFF38
:100F50008DED000AF7EE000AB0EE6A0A684618F056
:100F600035F998F820009DED000A00281CBF3BEEE3
:100F7000400A8DED000A8BED020AE08900EE100AAE
:100F8000B8EE400A20EE0C0A20EE2C0A8DED010A84
:100F90008BED050A98F81C0010B3A949DBF828006E
:100FA00001EB8002401C82ED000ACBF828000528E6
:100FB000A4BF0020CBF82800CDED01AA002001EB52
:100FC0008002DDED010A92ED000A401C052830EE9A
:100FD000200A8DED010AF2DB20EE2B0A8DED010ACD
:100FE00098ED061AD8ED050AB7EE002AF0EE6A1A57
:100FF0009DED010A17F04AFF8DED010AF7EE000A98
:10100000B0EE6A0A01A818F0E1F898F821009DED09
:10101000010A00281CBF3BEE400A8DED010A8BED52
:10102000040A00252C469BF8000000E012E0A0B363
:1010300084480268012121EA922598F81E20002A9E
:1010400018BF85F00105006821EAD02498F81F0038
:10105000D8B34DE0D8ED040A9DED000AF4EEC00AC5
:10106000F1EE10FA0CDD98ED041AD8ED020AB6EE96
:10107000002AF0EE6A1A17F009FF8DED000A69E701
:1010800098ED031AD8ED040AB7EE002AF6EE001A1E
:1010900017F0FCFE8DED000A5CE7FFE7D8F80000D2
:1010A00003281FBFD8F800000628D8F800000A2837
:1010B000644801684FF0010014D020EA911598F8B7
:1010C0001E00002818BF85F00105D8F80000801E1A
:1010D0000C281AD2DFE800F00F877E0F877E190FE9
:1010E00087190F8720EA911498F81F000028ECD088
:1010F00084F00104E9E79DED000AF0EE000A20EE1D
:10110000200A30EE4B0A8DED000A98ED010AF7EE49
:10111000000A684617F0B8FDD8F82C0098ED0A1AB6
:10112000D8ED090A9DED000A17F0C4FF8DED000A05
:10113000DBED070AB0EEC01AF0EEE00AB4EEE01AFA
:10114000F1EE10FACCBFD8ED0C0AD8ED0D0A10EE76
:10115000900A3D49884224DD2F4FDBF81800B96A18
:10116000DFED3A1A081A00EB4001C1EBC01042F261
:101170000F7101EBC00142F21070B1FBF0F001EE13
:10118000100A60EEA11A3248B8EE411AC1EE210AE7
:1011900017F052FFB86ACBF818009BED070A8DEDE7
:1011A000000A0027B0EE6A8A029709F00DFF814617
:1011B00009F082FFD8F80000BA460E28BFF461AEED
:1011C000DFE800F0071919194A4A4A4A767676AAE2
:1011D000AAAA56E69DED000ADDED010A30EE600A8E
:1011E0008DED000A91E7002C1CBF9DED000AB1EEC9
:1011F000400A8AD087E79DED008A16490127B0EEA4
:10120000480AB0EEC00A10EE100A88424FDAADE08C
:101210004150505F41444300A0FF0020580300208C
:10122000000402400108803933335340CDCC4C3E9A
:1012300020C2002000000000C06B002060BC002025
:1012400074BC0020100402400AD7233C00007A44FA
:10125000740300206F12833A9DED000A0127B5EE5A
:10126000C00AF1EE10FAAFBFB0EE408AB0EEC08A0D
:101270000120029010EE100AFE4988420FDA00EEBB
:10128000106A5FED0E0AB8EE400A60EE200A9BED90
:10129000010A9FEDF91A00EE810A8BED010AD8F8D8
:1012A0000000042874D1002C18BFB1EE488A6FE00A
:1012B0009DED000AEF49F0EEC00A10EE900A884258
:1012C0000FDA00EE906A1FED1F1AF8EE600A20EEAA
:1012D000811ADBED010ADFEDE81A41EE210ACBEDC0
:1012E000010ADBED010AE54910EE900A884202DAB4
:1012F00098F81D00E8BBD9ED190A99ED192AB7EE47
:10130000001AF1EE601AFFEE000A17F0BFFD0BF0B5
:10131000DFFB4FF0010A3BE09BED010AD74910EEDD
:10132000100A9DED008A884202DA98F81D00A0B9E3
:10133000B0EE480AB5EEC00AF1EE10FAAEBFD9ED34
:101340000A0A99ED090AF0EEC00AB0EE480A20EE4A
:10135000800A0BF085FC4FF0010A9DED000AC5499B
:10136000B0EEC00A10EE100A884211DA00EE106AE0
:1013700000E00DE0B8EE400A5FED4C0A60EE200A96
:101380009BED010A9FEDBC1A00EE810A8BED010A6C
:101390009BED010AB94910EE100A884241DA98F82B
:1013A0001D00E8B39BED0B0ADBED010AB8EEC00AA5
:1013B000F4EE400AF1EE10FA08BFCBED01AA9BED66
:1013C000010ABDEEC00A8BED0B0A15F02BFD0AF0E9
:1013D0000DFD98F8380000283FF453ADA84E0024C6
:1013E0009FEDA58AA74F204602F0F0F90546006858
:1013F000002811DB6868B16A081A00EE100AB8EE1E
:10140000400A20EE080A10EE100A874204DD15F0AB
:1014100009FD287802F016FB641C0A2CE3DB30E59A
:10142000FFE715F02FFD09F047FE9749DBF8200094
:1014300001EB8002401C82ED000ACBF82000082856
:10144000A4BF0020CBF82000F0EE6A9A002001EB48
:101450008002401C92ED000A082870EE299AF6DB03
:10146000B4EE000A2F4269EE800A3FD09DED000ADB
:101470008049B0EEC00A10EE100A814236DD9BF8BA
:10148000030020B901208BF80300CBED0C0A9BED83
:101490000C0A0BF0E5FB98F8380000283FF4F1AC9B
:1014A00009F0AAFE764DF0EE408A00249FED728A84
:1014B000744E204602F08AF901460068002811DBCC
:1014C0004968AA6A511A00EE101AB8EE400A20EED6
:1014D000080A10EE101A8E4204DDC0B2B0EE680A9F
:1014E00002F094FA641C0A2CE3DBCAE400208BF8B7
:1014F000030009F0E1FD98F83800B0EE40AAF0EEE4
:10150000408A38B35E4D00249FED5B9A5D4E2046C5
:1015100002F05CF90168002919DB4168AA6A511AD6
:1015200000EE101AB8EE400A20EE090A10EE101A6A
:101530008E420CDD90ED020AB0EEE81AF0EEC00A21
:10154000F4EEC10AF1EE10FA38BFF0EE408A641CE6
:101550000A2CDCDBBAF1000F1CBF98F83800002819
:1015600024D009F035FD464DF0EE409A00249FED61
:10157000429A444E204602F029F9014600680028AC
:1015800011DB4968AA6A511A00EE101AB8EE400A37
:1015900020EE090A10EE101A8E4204DDC0B2B0EE41
:1015A000690A02F097FA641C0A2CE3DB002F3FF46F
:1015B00068AC029828B3B0EE480A0AF051FC304DEE
:1015C000DFED2D8A2F4E0024204602F0FFF8014661
:1015D0000068002811DB4968AA6A511A00EE101A47
:1015E000B8EE400A20EE280A10EE101A8E4204DDF2
:1015F000C0B2B0EE480A02F041FA641C0A2CE3DBE8
:101600003FE4B5EEC08AB0EE489A0025F1EE10FA3C
:1016100008D2B1EE499A0125B0EE498AB1EE4AAA44
:10162000F1EE688A98F8380018B3154FDFED129A7A
:10163000DFF850900026304602F0C8F804460068F3
:1016400000283ADB6068B96A081A00EE100AB8EEA2
:10165000400A20EE290A10EE100A81452DDD98F887
:10166000390008B394ED020A002D18BFB1EE400A0C
:101670000CE036E06F12833A17B7D1380000FA4316
:10168000A0FF0020CDCCCC3D40BC0020F0EE6A0A8B
:1016900030EE680A98ED0F1AB0EE602AF0EE481AA4
:1016A00017F0F4FBB0EE409A2078002D14BFB1EE95
:1016B000490AB0EE490A02F0F7F9761C0A2EBADBA5
